:100000000C9439000C9456000C9456000C94560035
:100010000C9456000C9456000C9456000C94DC0082
:100020000C9456000C9456000C9456000C945600F8
:100030000C9456000C9456000C9456000C945600E8
:100040000C9456000C9456000C9456000C945600D8
:100050000C9456000C9456000C9456000C945600C8
:100060000C9456000C94560009000A010B070C0171
:100070000F0011241FBECFEFD8E0DEBFCDBF11E0CF
:10008000A0E0B1E0EEE0F5E002C005900D92AC31E9
:10009000B107D9F721E0ACE1B1E001C01D92A63370
:1000A000B207E1F70E944F020C9485020C94000005
:1000B00082E08093B00094E09093B1008093700050
:1000C00089EF8093B3000895CF93DF9300D000D0E1
:1000D000CDB7DEB78FB7F89420911C0130911D0188
:1000E00040911E0150911F0129833A834B835C8309
:1000F0008FBF69817A818B819C810F900F900F90C7
:100100000F90DF91CF910895E4E6F0E080818F7B3E
:100110008083E0E7F0E08081826080830895E0E7FB
:10012000F0E080818D7F8083E4E6F0E08081806470
:10013000808308958FB7F89410921C0110921D01CE
:1001400010921E0110921F018FBF0895462F572F46
:10015000BC012FB7F89480911C0190911D01A091D2
:100160001E01B0911F01840F951FA61FB71F80931A
:100170001C0190931D01A0931E01B0931F012FBF7E
:100180000895462F572FBC012FB7F89480911C017A
:1001900090911D01A0911E01B0911F01841B950B30
:1001A000A60BB70B80931C0190931D01A0931E0119
:1001B000B0931F012FBF08951F921FB61F921124E5
:1001C0008F939F93AF93BF9380911C0190911D01DA
:1001D000A0911E01B0911F010196A11DB11D809338
:1001E0001C0190931D01A0931E01B0931F01BF91AC
:1001F000AF919F918F911F901FBE1F9018958031D6
:1002000068F4E82FF0E0E05EFE4F81E090E001C08E
:10021000880F6A95EAF76081682B608308958031C2
:1002200088F4E82FF0E0E05EFE4F81E090E09C0172
:1002300002C0220F331F6A95E2F7B90160958081F1
:10024000682360830895E82FF0E0E05EFE4F808130
:10025000089598E02D9887FF07C02B9A2D9A880F54
:1002600091509111F7CF08952B98F8CF0F931F93CA
:10027000CF93DF93C62F2A98082F10E0C8010E9461
:100280002901D0E0CE010E942901C8010E94290164
:10029000CE010E9429012A9A2D98DF91CF911F91BA
:1002A0000F9108950F931F93CF93DF93259A229A6E
:1002B000239AC8E6D0E002E710E0FE01849131966F
:1002C00064910E94360122960C171D07B1F7DF9149
:1002D000CF911F910F910895FF920F931F93CF938A
:1002E000DF93C8E0D0E080E8F82E2A9800E010E024
:1002F000CE010E942901F801E05EFE4F88E0929154
:100300002D989F219923B1F02B9A2D9A815081111C
:10031000F6CF085F1F4F0831110551F72A9A2D9823
:10032000F6942197209709F7DF91CF911F910F91B4
:10033000FF9008952B98E9CF9FEF980F983010F415
:100340000C9436010895CF93C82F8A3019F48DE0AC
:100350000E94A3018091C00085FFFCCFC093C6001E
:1003600080E090E0CF9108958091C00087FFFCCF9E
:100370008091C60090E008951092C50083E38093B9
:10038000C400E0ECF0E080818D7F808386E0809384
:10039000C20088E18093C10008950E94BC01E0E39F
:1003A000F1E08EE091E09383828380E091E091839D
:1003B0008083089590917C00906490937C0090914C
:1003C0007A00976090937A0090917A009068909369
:1003D0007A0090917C00982B90937C0090917C0007
:1003E000907F90937C00833029F190F48130C1F0AC
:1003F0008230E1F080917A00806480937A0080916D
:100400007A0086FDFCCF8091780090917900089564
:100410008430A1F0853071F780917C00856003C045
:1004200080917C00816080937C00E4CF80917C008F
:100430008260F9CF80917C008360F5CF80917C0051
:100440008460F1CF9C01CB012C3B42E034074CF49B
:1004500001968131910514F080E190E02D32314018
:1004600034F01816190614F081E090E00197089511
:100470009C01CB012C3241E034073CF401968930D9
:10048000910564F088E090E008952D3B324034F00F
:100490001816190614F081E090E001970895389835
:1004A000399852985A9A0E94CD010E945201D0E088
:1004B00010E0C0E000E081E00E94DA016C0180E021
:1004C0000E94DA017C016D2F8C2F0E940F016C2F8E
:1004D000702FC6010E942202C82F092F6D2F712F85
:1004E000C7010E943802D82F192F682F8C2F0E9425
:1004F000FF000E946C012FEF81EE94E021508040BC
:0E0500009040E1F700C00000D6CFF894FFCF86
:10050E0000000001000000000000B4010000000027
:0C051E00000200000000A301000000002B
:00000001FF
