:100000000C9439000C9456000C9456000C94560035
:100010000C9456000C9456000C9456000C94DC0082
:100020000C9456000C9456000C9456000C945600F8
:100030000C9456000C9456000C9456000C945600E8
:100040000C9456000C9456000C9456000C945600D8
:100050000C9456000C9456000C9456000C945600C8
:100060000C9456000C94560009000A010B070C0171
:100070000F0011241FBECFEFD8E0DEBFCDBF11E0CF
:10008000A0E0B1E0EEE4FBE002C005900D92A832E2
:10009000B107D9F721E0A8E2B1E001C01D92A23476
:1000A000B207E1F70E9481020C94A5050C940000B0
:1000B00082E08093B00094E09093B1008093700050
:1000C00089EF8093B3000895CF93DF9300D000D0E1
:1000D000CDB7DEB78FB7F894209128013091290170
:1000E00040912A0150912B0129833A834B835C83F1
:1000F0008FBF69817A818B819C810F900F900F90C7
:100100000F90DF91CF910895E4E6F0E080818F7B3E
:100110008083E0E7F0E08081826080830895E0E7FB
:10012000F0E080818D7F8083E4E6F0E08081806470
:10013000808308958FB7F8941092280110922901B6
:1001400010922A0110922B018FBF0895462F572F2E
:10015000BC012FB7F8948091280190912901A091BA
:100160002A01B0912B01840F951FA61FB71F809302
:10017000280190932901A0932A01B0932B012FBF4E
:100180000895462F572FBC012FB7F894809128016E
:1001900090912901A0912A01B0912B01841B950B0C
:1001A000A60BB70B8093280190932901A0932A01F5
:1001B000B0932B012FBF08951F921FB61F921124D9
:1001C0008F939F93AF93BF938091280190912901C2
:1001D000A0912A01B0912B010196A11DB11D809320
:1001E000280190932901A0932A01B0932B01BF917C
:1001F000AF919F918F911F901FBE1F9018958031D6
:1002000068F4E82FF0E0E45DFE4F81E090E001C08B
:10021000880F6A95EAF76081682B608308958031C2
:1002200088F4E82FF0E0E45DFE4F81E090E09C016F
:1002300002C0220F331F6A95E2F7B90160958081F1
:10024000682360830895E82FF0E0E45DFE4F80812D
:10025000089598E02D9887FF07C02B9A2D9A880F54
:1002600091509111F7CF08952B98F8CF0F931F93CA
:10027000CF93DF93C62F2A98082F10E0C8010E9461
:100280002901D0E0CE010E942901C8010E94290164
:10029000CE010E9429012A9A2D98DF91CF911F91BA
:1002A0000F9108950F931F93CF93DF93259A229A6E
:1002B000239AC8E6D0E002E710E0FE01849131966F
:1002C00064910E94360122960C171D07B1F7DF9149
:1002D000CF911F910F910895FF920F931F93CF938A
:1002E000DF93C8E0D0E080E8F82E2A9800E010E024
:1002F000CE010E942901F801E45DFE4F88E0929151
:100300002D989F219923B1F02B9A2D9A815081111C
:10031000F6CF085F1F4F0831110551F72A9A2D9823
:10032000F6942197209709F7DF91CF911F910F91B4
:10033000FF9008952B98E9CF9FEF980F983010F415
:100340000C9436010895CF93C82F8A3019F48DE0AC
:100350000E94A3018091C00085FFFCCFC093C6001E
:1003600080E090E0CF9108958091C00087FFFCCF9E
:100370008091C60090E008951092C50083E38093B9
:10038000C400E0ECF0E080818D7F808386E0809384
:10039000C20088E18093C10008950E94BC01ECE393
:1003A000F1E08EE091E09383828380E091E091839D
:1003B0008083089590917C00906490937C0090914C
:1003C0007A00976090937A0090917A009068909369
:1003D0007A0090917C00982B90937C0090917C0007
:1003E000907F90937C00833029F190F48130C1F0AC
:1003F0008230E1F080917A00806480937A0080916D
:100400007A0086FDFCCF8091780090917900089564
:100410008430A1F0853071F780917C00856003C045
:1004200080917C00816080937C00E4CF80917C008F
:100430008260F9CF80917C008360F5CF80917C0051
:100440008460F1CF0F931F93CF93DF938C01EB0167
:100450000C3B82E01807ACF42196C131D10514F0B1
:10046000C0E1D0E0DF93CF938CE191E09F938F9335
:100470000E94B3020F900F900F900F900D32114019
:1004800094F01C161D0614F0C1E0D0E02197DF9314
:10049000CF938CE191E09F938F930E94B3020F90D2
:1004A0000F900F900F90CE01DF91CF911F910F9180
:1004B0000895CF93DF939C01EB012C3281E0380744
:1004C000B4F42196C930D10514F0C8E0D0E0DF9330
:1004D000CF9382E291E09F938F930E94B3020F909B
:1004E0000F900F900F90CE01DF91CF9108952D3B8B
:1004F0003240CCF31C161D0614F0C1E0D0E0219769
:10050000E6CF3898399852985A9A0E94CD010E94A5
:100510005201D0E010E0C0E000E081E00E94DA018A
:100520006C0180E00E94DA017C016C2F702FC60103
:100530000E942202C82F092F6D2F712FC7010E9420
:100540005902D82F192F682F8C2F0E94FF000E946C
:100550006C012FEF81EE94E0215080409040E1F754
:1005600000C00000DACFA0E0B0E0E9EBF2E00C94CC
:100570007E05AE014B5F5F4FFA0161917191AF0152
:1005800080913E0190913F010E94C902E2E00C94EB
:100590009A05AFE0B0E0EFECF2E00C9471056C016D
:1005A0007B018A01DC0117961C921E921697139606
:1005B0008C9181FFECC12AE0522EF6019381F70164
:1005C00093FD859193FF81917F01882309F473C086
:1005D000853239F493FD859193FF81917F018532B6
:1005E00029F4B60190E00E94E004E7CF912C612C41
:1005F000712CFFE1F71508F446C08B32C9F1F8F40D
:100600008032C1F1833209F43BC0833609F48AC0D9
:10061000833709F493C0833509F0B6C0F801A1907F
:10062000B1908F01692D70E076FC02C06FEF7FEF13
:10063000C5010E94CA044C01689477F85FC08D32EE
:10064000E1F0803351F020ED280F2A3048F18E324E
:1006500009F039C0689476F802C0689470F8F70120
:1006600093FD859193FF81917F018111C2CF33C0AA
:10067000689471F8689472F8F2CF689473F8EFCFC9
:10068000689474F8ECCF77FC26C020ED280F2A3050
:1006900070F476FE05C0959C200D1124922EDFCFBC
:1006A000659C200D1124622E689475F8D8CF8E3287
:1006B00051F476FECFCFD60116968D919C912F9650
:1006C000EFE00C948D058C3619F4689477F8C7CF59
:1006D000883609F4C4CF982F9F7D9554933008F045
:1006E00094CF0C5F1F4F8FE3898388248394912CD0
:1006F000AE014F5F5F4F5A01E89477F873FC05C075
:10070000862D90E08816990640F18114910461F5D8
:10071000662009F452CFB60180E290E00E94E00426
:100720006A94F6CFD8018C9189830E5F1F4F88247D
:100730008394912CFE0131965F01DECFD801AD90FC
:10074000BD908D01692D70E076FC02C06FEF7FEFE8
:10075000C5010E94D5044C01CFCFB60180E290E0E4
:100760000E94E0046A94CCCFF50177FC859177FE76
:1007700081915F01B60190E00E94E00461106A94EB
:10078000F1E08F1A9108C1CF843619F0893609F04B
:1007900081C0F80177FE77C061917191819191914B
:1007A0008F01272D2F76822E97FF09C09095809577
:1007B000709561957F4F8F4F9F4F689487F82AE01F
:1007C00030E0AE014F5F5F4F5A010E9410058A1959
:1007D000A82EBA2C782C86FE0CC0E89470F8A914C8
:1007E00040F484FE05C082FC03C0782D7E7E772E07
:1007F000B92C74FEA5C0FE01EA0DF11D8081803385
:1008000009F097C0872D897E782E73FC0EC070FE8C
:10081000A6C09A2CB61418F4960C9B18B62C862DEC
:100820008B196B1408F480E0B80EB61408F099C068
:100830006B1874FE98C0B60180E390E00E94E0045B
:1008400072FE09C088E590E071FC02C088E790E084
:10085000B6010E94E004A91408F492C0AA94B12C35
:100860009FEFA91AB90ADE0111964D01AA0EBB1E0F
:10087000F50182915F01B60190E00E94E0048A14C4
:100880009B04B1F745CF61917191072E000C880B45
:10089000990B86CF872CE89484F82AE030E08537DE
:1008A00069F0572D597F852E803771F118F58835FD
:1008B00071F18F3609F0FFCE28E030E0F80187FEB5
:1008C0002EC081919191A191B1918C879D87AE8726
:1008D000BF878F01BE016F5F7F4F5B01AB016C85EE
:1008E0007D858E859F850E9410058A19A82EE89423
:1008F00087F86FCF883709F0DECE84FE02C0689497
:1009000082F820E130E0DACF689484F8F6CF74FE04
:1009100003C0652F6660862E20E132E0CFCF819143
:100920009191AC0160E070E04C875D876E877F87B6
:10093000D0CF72FC02C0B39468CFB394B39465CFA8
:10094000872D8678882309F460CFF5CFB60180E241
:1009500090E00E94E00483948614C0F360CF8B2C57
:10096000FBCF612C66CF872D8678882309F473CF5F
:100970008BE271FE80E277FC8DE2B60190E069CFF8
:10098000B60180E390E00E94E0049A9464CF8FEF78
:100990009FEF95CEFC010590615070400110D8F793
:1009A000809590958E0F9F1F0895FC0161507040B7
:1009B00001900110D8F7809590958E0F9F1F089594
:1009C0000F931F93CF93DF93182F092FEB018B8188
:1009D00081FD09C01FEF0FEF812F902FDF91CF9185
:1009E0001F910F91089582FF14C02E813F818C8149
:1009F0009D81281739073CF4E881F981CF010196E0
:100A00009983888310838E819F8101969F838E8333
:100A1000E3CFE885F985812F0995892BA1F3DACFFA
:100A2000FA01AA27283051F1203181F1E8946F931F
:100A30006E7F6E5F7F4F8F4F9F4FAF4FB1E03ED0C5
:100A4000B4E03CD0670F781F891F9A1FA11D680F63
:100A5000791F8A1F911DA11D6A0F711D811D911D96
:100A6000A11D20D009F468943F912AE0269F11240B
:100A70003019305D3193DEF6CF010895462F47706F
:100A8000405D4193B3E00FD0C9F7F6CF462F4F70CA
:100A9000405D4A3318F0495D31FD4052419302D028
:100AA000A9F7EACFB4E0A6959795879577956795CE
:100AB000BA95C9F700976105710508959B01AC01CE
:100AC0000A2E06945795479537952795BA95C9F7F5
:100AD000620F731F841F951FA01D08952F923F92D0
:100AE0004F925F926F927F928F929F92AF92BF923E
:100AF000CF92DF92EF92FF920F931F93CF93DF93EA
:100B0000CDB7DEB7CA1BDB0B0FB6F894DEBF0FBE46
:100B1000CDBF09942A88398848885F846E847D8493
:100B20008C849B84AA84B984C884DF80EE80FD8095
:100B30000C811B81AA81B981CE0FD11D0FB6F8940B
:0E0B4000DEBF0FBECDBFED010895F894FFCFCC
:100B4E0000000001000000000000B40100000000E1
:100B5E00000200000000A30100000000783A2564A6
:080B6E000A00793A25640A002F
:00000001FF
