:100000000C9439000C9456000C9456000C94560035
:100010000C9456000C9456000C9456000C94DC0082
:100020000C9456000C9456000C9456000C945600F8
:100030000C9456000C9456000C9456000C945600E8
:100040000C9456000C9456000C9456000C945600D8
:100050000C9456000C9456000C9456000C945600C8
:100060000C9456000C94560009000A010B070C0171
:100070000F0011241FBECFEFD8E0DEBFCDBF11E0CF
:10008000A0E0B1E0E2EBFDE002C005900D92A033EC
:10009000B107D9F721E0A0E3B1E001C01D92AE3471
:1000A000B207E1F70E9480020C94D7060C9400007E
:1000B00082E08093B00094E09093B1008093700050
:1000C00089EF8093B3000895CF93DF9300D000D0E1
:1000D000CDB7DEB78FB7F894209130013091310160
:1000E000409132015091330129833A834B835C83E1
:1000F0008FBF69817A818B819C810F900F900F90C7
:100100000F90DF91CF910895E4E6F0E080818F7B3E
:100110008083E0E7F0E08081826080830895E0E7FB
:10012000F0E080818D7F8083E4E6F0E08081806470
:10013000808308958FB7F8941092300110923101A6
:1001400010923201109233018FBF0895462F572F1E
:10015000BC012FB7F8948091300190913101A091AA
:100160003201B0913301840F951FA61FB71F8093F2
:10017000300190933101A0933201B09333012FBF2E
:100180000895462F572FBC012FB7F8948091300166
:1001900090913101A0913201B0913301841B950BF4
:1001A000A60BB70B8093300190933101A0933201DD
:1001B000B09333012FBF08951F921FB61F921124D1
:1001C0008F939F93AF93BF938091300190913101B2
:1001D000A0913201B09133010196A11DB11D809310
:1001E000300190933101A0933201B0933301BF915C
:1001F000AF919F918F911F901FBE1F9018958031D6
:1002000068F4E82FF0E0EC5CFE4F81E090E001C084
:10021000880F6A95EAF76081682B608308958031C2
:1002200088F4E82FF0E0EC5CFE4F81E090E09C0168
:1002300002C0220F331F6A95E2F7B90160958081F1
:10024000682360830895E82FF0E0EC5CFE4F808126
:10025000089598E02D9887FF07C02B9A2D9A880F54
:1002600091509111F7CF08952B98F8CF0F931F93CA
:10027000CF93DF93C62F2A98082F10E0C8010E9461
:100280002901D0E0CE010E942901C8010E94290164
:10029000CE010E9429012A9A2D98DF91CF911F91BA
:1002A0000F9108950F931F93CF93DF93259A229A6E
:1002B000239AC8E6D0E002E710E0FE01849131966F
:1002C00064910E94360122960C171D07B1F7DF9149
:1002D000CF911F910F910895FF920F931F93CF938A
:1002E000DF93C8E0D0E080E8F82E2A9800E010E024
:1002F000CE010E942901F801EC5CFE4F88E092914A
:100300002D989F219923B1F02B9A2D9A815081111C
:10031000F6CF085F1F4F0831110551F72A9A2D9823
:10032000F6942197209709F7DF91CF911F910F91B4
:10033000FF9008952B98E9CF9FEF980F983010F415
:100340000C9436010895CF93C82F8A3019F48DE0AC
:100350000E94A3018091C00085FFFCCFC093C6001E
:1003600080E090E0CF9108958091C00087FFFCCF9E
:100370008091C60090E008951092C50083E38093B9
:10038000C400E0ECF0E080818D7F808386E0809384
:10039000C20088E18093C10008950E94BC01E4E49A
:1003A000F1E08EE091E09383828380E091E091839D
:1003B0008083089590917C00906490937C0090914C
:1003C0007A00976090937A0090917A009068909369
:1003D0007A0090917C00982B90937C0090917C0007
:1003E000907F90937C00833029F190F48130C1F0AC
:1003F0008230E1F080917A00806480937A0080916D
:100400007A0086FDFCCF8091780090917900089564
:100410008430A1F0853071F780917C00856003C045
:1004200080917C00816080937C00E4CF80917C008F
:100430008260F9CF80917C008360F5CF80917C0051
:100440008460F1CF9C01CB012C3B42E034074CF49B
:1004500001968131910514F080E190E02D32314018
:1004600034F01816190614F081E090E00197089511
:100470009C01CB012C3241E034073CF401968930D9
:10048000910564F088E090E008952D3B324034F00F
:100490001816190614F081E090E001970895CF93A3
:1004A000DF93D82FC92F0E9472036D2F7C2F0E94DB
:1004B000E702DF91CF910895A4E0B0E0E2E6F2E038
:1004C0000C947F06FC010FB6F89480914A0190913C
:1004D0004B01A0914C01B0914D0189839A83AB836C
:1004E000BC830FBE309721F080839183A283B383B6
:1004F00069817A818B819C812496E2E00C949B0631
:100500003898399852985A9A0E94CD010E94520107
:1005100080E090E00E945C02CB010E94770388E0BB
:1005200090E00E944F02C82F092F80E190E00E94C6
:100530004F02D82F192F0F93CF9380E291E09F9312
:100540008F930E9482031F93DF9388E291E09F9331
:100550008F930E9482036D2F8C2F0E94FF000E94B8
:100560006C018DB79EB708960FB6F8949EBF0FBE6C
:100570008DBFA12CB12C81E00E94DA016C0180E0DA
:100580000E94DA017C016A2D8B2D0E940F016C2FD5
:10059000702FC6010E942202C82F092F6D2F712FC4
:1005A000C7010E943802D82F192F682F8C2F0E9464
:1005B000FF000E946C019FEF21EE84E091502040EB
:1005C0008040E1F700C00000AD2EBC2ED4CF97FBD9
:1005D000072E16F4009407D077FD09D00E94FB0285
:1005E00007FC05D03EF4909581959F4F0895709536
:1005F00061957F4F0895AA1BBB1B51E107C0AA1F3D
:10060000BB1FA617B70710F0A61BB70B881F991FB3
:100610005A95A9F780959095BC01CD010895CF9288
:10062000DF92EF92FF92CF93DF93CDB7DEB72A9799
:100630000FB6F894DEBF0FBECDBF89879A87A98514
:10064000BA852D913D914D915C9129833A834B83DD
:100650005C8382E49EECACE0BFE1211531054105ED
:10066000510549F1CA01B9012DE133EF41E050E0F4
:100670000E943D0669017A01A7EAB1E49B01AC0141
:100680000E945C0669837A838B839C83ACEEB4EF13
:10069000A70196010E946A069B01AC0189819A819B
:1006A000AB81BC81820F931FA41FB51FB7FF03C08E
:1006B0000197A109B048E985FA8580839183A283D7
:1006C000B3839F772A960FB6F894DEBF0FBECDBFD7
:1006D000DF91CF91FF90EF90DF90CF9008950E942F
:1006E0000F0308958CE191E00E940F030895A0E0AC
:1006F000B0E080931C0190931D01A0931E01B09364
:100700001F010895A0E0B0E0E8E8F3E00C947F0654
:10071000AE014B5F5F4FFA0161917191AF01809122
:100720004601909147010E949803E2E00C949B06D9
:10073000AFE0B0E0EEE9F3E00C9472066C017B01EF
:100740008A01DC0117961C921E92169713968C91C3
:1007500081FFECC12AE0522EF6019381F70193FD4F
:10076000859193FF81917F01882309F473C08532BD
:1007700039F493FD859193FF81917F01853229F4AE
:10078000B60190E00E94AF05E7CF912C612C712C4F
:10079000FFE1F71508F446C08B32C9F1F8F4803256
:1007A000C1F1833209F43BC0833609F48AC0833730
:1007B00009F493C0833509F0B6C0F801A190B19057
:1007C0008F01692D70E076FC02C06FEF7FEFC501ED
:1007D0000E9499054C01689477F85FC08D32E1F072
:1007E000803351F020ED280F2A3048F18E3209F085
:1007F00039C0689476F802C0689470F8F70193FDE8
:10080000859193FF81917F018111C2CF33C068949C
:1008100071F8689472F8F2CF689473F8EFCF689427
:1008200074F8ECCF77FC26C020ED280F2A3070F446
:1008300076FE05C0959C200D1124922EDFCF659C7D
:10084000200D1124622E689475F8D8CF8E3251F4A1
:1008500076FECFCFD60116968D919C912F96EFE024
:100860000C948E068C3619F4689477F8C7CF8836C6
:1008700009F4C4CF982F9F7D9554933008F094CFFE
:100880000C5F1F4F8FE3898388248394912CAE01E2
:100890004F5F5F4F5A01E89477F873FC05C0862DCF
:1008A00090E08816990640F18114910461F5662064
:1008B00009F452CFB60180E290E00E94AF056A943D
:1008C000F6CFD8018C9189830E5F1F4F88248394C3
:1008D000912CFE0131965F01DECFD801AD90BD9025
:1008E0008D01692D70E076FC02C06FEF7FEFC501CE
:1008F0000E94A4054C01CFCFB60180E290E00E9497
:10090000AF056A94CCCFF50177FC859177FE819194
:100910005F01B60190E00E94AF0561106A94F1E0BA
:100920008F1A9108C1CF843619F0893609F081C039
:10093000F80177FE77C061917191819191918F015A
:10094000272D2F76822E97FF09C090958095709560
:1009500061957F4F8F4F9F4F689487F82AE030E072
:10096000AE014F5F5F4F5A010E94DF058A19A82E22
:10097000BA2C782C86FE0CC0E89470F8A91440F4C8
:1009800084FE05C082FC03C0782D7E7E772EB92CB4
:1009900074FEA5C0FE01EA0DF11D8081803309F0CF
:1009A00097C0872D897E782E73FC0EC070FEA6C07E
:1009B0009A2CB61418F4960C9B18B62C862D8B190D
:1009C0006B1408F480E0B80EB61408F099C06B18E8
:1009D00074FE98C0B60180E390E00E94AF0572FEFD
:1009E00009C088E590E071FC02C088E790E0B6019C
:1009F0000E94AF05A91408F492C0AA94B12C9FEFED
:100A0000A91AB90ADE0111964D01AA0EBB1EF50105
:100A100082915F01B60190E00E94AF058A149B04A9
:100A2000B1F745CF61917191072E000C880B990B9E
:100A300086CF872CE89484F82AE030E0853769F087
:100A4000572D597F852E803771F118F5883571F152
:100A50008F3609F0FFCE28E030E0F80187FE2EC087
:100A600081919191A191B1918C879D87AE87BF872C
:100A70008F01BE016F5F7F4F5B01AB016C857D8590
:100A80008E859F850E94DF058A19A82EE89487F835
:100A90006FCF883709F0DECE84FE02C0689482F8FA
:100AA00020E130E0DACF689484F8F6CF74FE03C01A
:100AB000652F6660862E20E132E0CFCF8191919143
:100AC000AC0160E070E04C875D876E877F87D0CF98
:100AD00072FC02C0B39468CFB394B39465CF872DF2
:100AE0008678882309F460CFF5CFB60180E290E0E4
:100AF0000E94AF0583948614C0F360CF8B2CFBCF8C
:100B0000612C66CF872D8678882309F473CF8BE21A
:100B100071FE80E277FC8DE2B60190E069CFB6010C
:100B200080E390E00E94AF059A9464CF8FEF9FEF2F
:100B300095CEFC010590615070400110D8F780956A
:100B400090958E0F9F1F0895FC0161507040019099
:100B50000110D8F7809590958E0F9F1F08950F93E1
:100B60001F93CF93DF93182F092FEB018B8181FD0A
:100B700009C01FEF0FEF812F902FDF91CF911F91B1
:100B80000F91089582FF14C02E813F818C819D8139
:100B9000281739073CF4E881F981CF010196998340
:100BA000888310838E819F8101969F838E83E3CFFC
:100BB000E885F985812F0995892BA1F3DACFFA0110
:100BC000AA27283051F1203181F1E8946F936E7F8C
:100BD0006E5F7F4F8F4F9F4FAF4FB1E03ED0B4E07D
:100BE0003CD0670F781F891F9A1FA11D680F791FBE
:100BF0008A1F911DA11D6A0F711D811D911DA11DCF
:100C000020D009F468943F912AE0269F11243019DE
:100C1000305D3193DEF6CF010895462F4770405D79
:100C20004193B3E00FD0C9F7F6CF462F4F70405D28
:100C30004A3318F0495D31FD4052419302D0A9F783
:100C4000EACFB4E0A6959795879577956795BA957D
:100C5000C9F700976105710508959B01AC010A2E43
:100C600006945795479537952795BA95C9F7620F1A
:100C7000731F841F951FA01D0895052E97FB1EF45A
:100C800000940E94540657FD07D00E94A60607FC58
:100C900003D04EF40C945406509540953095219510
:100CA0003F4F4F4F5F4F0895909580957095619598
:100CB0007F4F8F4F9F4F08950E94C806A59F900DAC
:100CC000B49F900DA49F800D911D11240895B7FF2E
:100CD0000C945C060E945C06821B930B08952F9275
:100CE0003F924F925F926F927F928F929F92AF92BC
:100CF000BF92CF92DF92EF92FF920F931F93CF9309
:100D0000DF93CDB7DEB7CA1BDB0B0FB6F894DEBF9F
:100D10000FBECDBF09942A88398848885F846E84C5
:100D20007D848C849B84AA84B984C884DF80EE800F
:100D3000FD800C811B81AA81B981CE0FD11D0FB618
:100D4000F894DEBF0FBECDBFED010895A1E21A2ECB
:100D5000AA1BBB1BFD010DC0AA1FBB1FEE1FFF1F5F
:100D6000A217B307E407F50720F0A21BB30BE40BAF
:100D7000F50B661F771F881F991F1A9469F76095F6
:100D80007095809590959B01AC01BD01CF010895B0
:100D9000A29FB001B39FC001A39F700D811D1124BC
:100DA000911DB29F700D811D1124911D0895F8941D
:020DB000FFCF73
:100DB20000000001000000000000B401000000007B
:100DC200000200000000A30100000000010000007A
:100DD20078203D2025640A0079203D20256400000A
:00000001FF
